:060000000C9484000C9436
:10000600F6040C94FC040C9400000C9400000C9470
:1000160000000C9400000C9400000C9400000C945A
:1000260000000C9400000C9400000C9400000C944A
:1000360000000C9463020C9400000C9400000C94D5
:1000460000000C9400000C9400000C9400000C942A
:1000560000000C9400000C9400000C9400000C941A
:1000660000000C9400000C9400000C9400000C940A
:10007600AC020C9400000C9400000C9400000C944C
:1000860000000C9400001027E80364000A00010039
:10009600001000011000010063656E746572203A5D
:1000A6002025642009206C656674203A202564208A
:1000B60009207269676874203A2025640D0A0000D9
:1000C6000901050406020A0809080A0206040501D0
:1000D60064FF0000000001002D4E414E00494E46CF
:1000E600000008000505C60008000D05CE00020048
:1000F6001805D60004000400D80001002205DC0023
:100106000000F894EE27ECBBF1E0F5BFE5BFE09305
:100116006C00F8E1F1BDE1BD8DE0A2E0BB27ED93F7
:100126008A95E9F780E090E1A0E0B1E0ED930197D0
:10013600E9F7E8EEF0E085919591009761F0A591D9
:10014600B59105901590BF01F00105900D920197AC
:10015600E1F7FB01F0CF8BBFEFEFEDBFE0E1EEBFC4
:10016600C0E0D5E00C94B70020E030E0E1E0E09399
:10017600040562D10E94FE020E942E050E940F0510
:10018600E0E0E0939B00E8E1E0939A00E6E0E0938C
:100196009D00E0E0E0939800E7E6E0939900E4E64E
:1001A600FFEF0E94DF06E4E6FFEF0E94E406E0EEC2
:1001B600F0E00E94E90678940E941E05E130E9F518
:1001C6002F5F3F4F2730E0E03E0714F020E030E09D
:1001D6000E94ED06F901309719F4E0E1F0E029C03C
:1001E600E130A0E0FA0719F4E0E2F0E022C0E230E4
:1001F600A0E0FA0719F4E0E4F0E01BC0E330A0E069
:10020600FA0719F4E0E8F0E014C0E430A0E0FA07D9
:1002160019F4E0E3F0E00DC0E530A0E0FA0719F4C8
:10022600E0E5F0E006C0E630A0E0FA0731F4E0E9E8
:10023600F0E0FA93EA930E9440050E942505E1301A
:1002460011F00C941D020E94ED06F901309771F42D
:1002560000E010E00830E0E01E073CF4E6E0F0E0E5
:100266000E94F0060F5F1F4FF5CFE4C0E130A0E01B
:10027600FA07C9F4EEE9F0E0FA93EA930E94F4066D
:100286000E94F8060E94FD060E94F8060E940107D9
:100296000E94F8068CE00E94A3062E96E2E3F0E0A8
:1002A6000E940507E7CFE230A0E0FA0771F400E00C
:1002B60010E00330E0E01E073CF4E4E0F0E00E94CA
:1002C600F0060F5F1F4FF5CFB5C0E330A0E0FA0789
:1002D60061F400E010E00830E0E01E072CF40E9414
:1002E60009070F5F1F4FF7CFA5C0E430A0E0FA075C
:1002F60011F00C94D7010E94ED060E942505E0300E
:10030600E1F30E94F406A0E0B0E00E94E408E0E118
:10031600F0E00E940C070E942505E030E1F3E2E0E0
:10032600F0E0FF93EF930E94FD06AF91BF910E940C
:10033600E408E0E2F0E00E940C070E942505E030A8
:10034600E1F3E4E0F0E0FF93EF930E940107AF9141
:10035600BF910E94E408E0E4F0E00E940C070E94CE
:100366002505E030E1F30E94F406A6E0B0E00E9425
:10037600E408E8E0F0E0FF93EF930E94FD06F297B1
:10038600AF91BF910E94E408EAE0F0E0FF93EF939B
:100396000E940107F297AF91BF910E94E408E0E83E
:1003A600F0E00E940C0746C0E530A0E0FA0711F025
:1003B6000C941D020E9409070E94FD060F01A2E08F
:1003C600B0E00E94D4080E161F0638F40E940907F2
:1003D600E5E0F0E00E94F00628C00E94F4060F0156
:1003E600A0E0B0E00E94D408E015F105F0F40E9408
:1003F60001070F01A4E0B0E00E94D4080E161F0604
:1004060028F40E940907E6E0F0E008C00E94090708
:10041600E5E0F0E00E94F006E5E0F0E0FA93EA930A
:100426000E94E8030E94090704C0E8E0F0E00E9489
:10043600F006C2CFC1CEFFCFE8B3EF71E8BBE7B39A
:10044600E06EE7BBE0916200E87FE0936200E09136
:100456006100E86FE0936100E0E4E7B9E7E8E6B938
:100466000895E881E064E7B985E38A95F1F7369A5D
:10047600349BFECF349AE4B1F5B10C9460051A931F
:100486000A93EA81F0E0309729F4C59A0E94100792
:10049600C59811C0E130A0E0FA0729F4C69A0E9477
:1004A6001007C69808C0E230A0E0FA0721F4C79A00
:1004B6000E941007C798F801198108810C946C05F1
:1004C6000E941907E530A0E0FA07A1F40E9426076A
:1004D600E029E2BB0E942607E15FE021E2BBF401CE
:1004E60031974F010024801490041CF4E7E0F0E0FB
:1004F6004F0124C0E630A0E0FA0721F0E730A0E083
:10050600FA0709F404C0E430A0E0FA0709F404C0CD
:10051600E830A0E0FA0791F40E942607E029E2BB42
:100526000E942607E15FE021E2BBF40131964F010C
:10053600D401E8E0F0E00E94A1084F01E1E0E09379
:100546001E05E0910105F070EDBDE0910005ECBDE2
:1005560048C00E941907E630A0E0FA0721F0E7300C
:10056600A0E0FA07A1F40E942F07E029E3B90E9450
:100576002F07E15FE021E3B9F50131975F01002420
:10058600A014B0041CF4E7E0F0E05F011FC0E43003
:10059600A0E0FA0721F0E830A0E0FA0709F404C069
:1005A600E530A0E0FA0791F40E942F07E029E3B9AD
:1005B6000E942F07E15FE021E3B9F50131965F0163
:1005C600D501E8E0F0E00E94A1085F01E1E0E093D8
:1005D6001F05E0910305E0938900E0910205E09391
:1005E6008800E991EFBFF991E991B991A9919991A3
:1005F6001990099018952497E2B3EF70E2BBE1B326
:10060600E06FE1BBE3B1EF70E3B9E2B1E06FE2B9ED
:10061600E0E0EFBDE4E0EEBDE0E0EDBDECBDE7BD42
:10062600E6BDEBBDEABDE9BDE8BDE0937900E09328
:100636007800E0938B00E4E0E0938A00E0E0E0934A
:100646008900E0938800E0938100E0938000E093C6
:100656008700E0938600E0938500E0938400E093B2
:100666008300E0938200E4E0E7BFE0937D00EBEADD
:10067600F8EE6BEE7EE30E94CA08A0E0B0E08DE4DF
:1006860093E40E942C080E94E507E0931A05F09374
:100696001B050E94C508A5EFB4ED85EA92E40E9409
:1006A6002C080E94E507E0931C05F0931D0524968F
:1006B60008950E94FD0840E050E00E94FD068F016B
:1006C6000E9401079F01E0910005F09101050E943B
:1006D6003807C0900205D0900305A4E0B0E00E9460
:1006E600D4082E173F073CF0A2E0B0E00E94D408E1
:1006F6000E171F072CF40E943D070E94420771C186
:10070600AAE0B0E00E94D4082E173F0714F50E9415
:100716004C0735960E943807F60135976F010E94FF
:100726003D07B396A0911505B0911605EA17FB078C
:100736002CF40E943D07B3960E9438070E943D079D
:10074600B397CE16DF0624F40E943D07B3976F01D8
:1007560002C04F5F5F4FA8E0B0E00E94D4080E17BA
:100766001F0714F50E944C0735970E943807F601BB
:1007760035966F010E943D07B396EC15FD0524F4EE
:100786000E943D07B3966F010E943D07B397A09163
:100796001505B0911605AE17BF072CF40E943D074C
:1007A600B3970E94380702C04F5F5F4FE2E0F0E068
:1007B600E417F50729F40E943D070E94420711C17C
:1007C600E1E0F0E00E9404090CC10E94FF0800E08D
:1007D60010E020E030E0E4E0EEBDE0938A00EC813A
:1007E600E0931705E0E0E0931E05E0931F05EC811A
:1007F600FD81E430A0E0FA07C1F40E9451070E170C
:100806001F072CF00E9451072E173F076CF4E0914A
:100816001E05E03011F00E945607E0911F05E030FA
:1008260011F00E945C07E9CFD6C0E830A0E0FA07D5
:1008360089F50E9462070E171F071CF02E173F0747
:1008460044F50E94F4060F01A6E0B0E00E94D40829
:10085600E015F105F0F0E0911E05E03021F4E0919D
:100866001F05E03049F025DF0E944C070E94DF0695
:10087600C0920205D0920305E0911E05E03011F00A
:100886000E945607E0911F05E03011F00E945C07B8
:10089600D0CFA1C0E530A0E0FA07D1F40E946607E8
:1008A6000E946C070E171F072CF00E946C072E176C
:1008B6003F076CF4E0911E05E03011F00E945607E8
:1008C600E0911F05E03011F00E945C07E9CF83C07C
:1008D600E630A0E0FA07D1F40E9466070E946C0792
:1008E6000E171F072CF00E946C072E173F076CF49B
:1008F600E0911E05E03011F00E945607E0911F05B9
:10090600E03011F00E945C07E9CF65C0E730A0E057
:10091600FA0721F5E4E1FFEF0E94DF06E4E1FFEFCD
:100926000E94E406A0911C05B0911D05E2E0F0E0EE
:100936000E9489080E171F071CF02E173F076CF43C
:10094600E0911E05E03011F00E945607E0911F0568
:10095600E03011F00E945C07E5CF3DC0E930A0E031
:10096600FA07C1F40E946207F595E7950E171F076F
:100976001CF02E173F076CF4E0911E05E03011F0D5
:100986000E945607E0911F05E03011F00E945C07B7
:10099600E9CF21C0EB30A0E0FA0769F40E946207B4
:1009A6002E173F073CF4E0911F05E03011F00E943E
:1009B6005C07F4CF10C0EA30A0E0FA0761F40E94A9
:1009C60062070E171F073CF4E0911E05E03011F098
:1009D6000E945607F4CFE0E0EEBDE0938A000E9445
:1009E6000609269608950E947107E1E0E093200526
:1009F60005C00E947107E1E0E0932105E991EFBF90
:100A0600F991E991B991A991999189917991699110
:100A1600F990199009901895E2B3EC7FE2BBE1B327
:100A2600EC7FE1BBEAE0E0936A00E0E0EABFE3E0E6
:100A3600E9BFE8BF08951A9310912005E0E0E0931E
:100A4600200506C01A9310912105E0E0E0932105E8
:100A5600E12F19910895E0916200EF70E093620032
:100A6600E0916100E06FE09361000895A2E6B0E0D6
:100A76000A2EEC91A881EA2B07C0A2E6B0E00A2E66
:100A8600AC91E881E095EA23A02DEC932296089597
:100A9600E0910405F0E0309729F45D9BFECFE881F4
:100AA600ECB90BC0E130A0E0FA0739F4E0919B0005
:100AB600E072E1F3E881E0939C0021960895EA81D3
:100AC600EA93E6DFA881B981ED91FD913196FE9317
:100AD600EE932396089526970E94FD0810E0AC85B4
:100AE600BD85E0E0F0E0ED93FC93EA89FB89319661
:100AF600EA8BFB8B3197E4912E2FE03011F40C94A6
:100B06009B06E12FE03039F4253211F411E002C0E2
:100B16000E9481070CC1E130A9F4253219F40E9424
:100B2600810704C112E040E000E02D3211F401E03B
:100B3600FEC02B3211F44BE2FAC0203211F440E22F
:100B4600F6C002C0E23039F450E013E0203311F46D
:100B56000068EDC004C0E33011F00C949A0620330F
:100B660010F02A3308F007C0AAE05A9F502DE22F52
:100B7600E0535E0FDCC0E22FE33649F40E948A0799
:100B8600E889F989A481AA930E949007CFC0E33728
:100B960041F40E948A070E9498070E94CA061E2FE7
:100BA6000AC0E03761F40E948A070E9498070E94F3
:100BB600D4061E2F086002600F7730E035C0E43699
:100BC60011F0E93611F4046002C0E53731F4ECE8BF
:100BD600F0E0EE83FF8315E00DC0E83511F4086000
:100BE60004C0E83711F00C949906E6E9F0E0EE83CC
:100BF600FF8314E002FF14C00E948A070E94A20726
:100C0600AB85AA233AF4EA85FB850E947508EA8734
:100C1600FB874DE2403011F01F5F01C00B7F04C01F
:100C26000E948A070E94A20700FD11C0151778F4DA
:100C360007FF08C002FF04C00B7F242F115001C01C
:100C460020E301C020E20E9481075150EFCF312FEF
:100C560001FF17C03030A1F003FF06C0EE81FF810F
:100C66002591EE83FF8305C0AE81BF812D91AE83B2
:100C7600BF830E948107503009F051503150EACFAE
:100C86004BC020E3EE81FF810E94C108E887F98707
:100C9600EE81FF813296EE83FF83E885F985AA858A
:100CA600BB85AE17BF0750F02F5FA885B985EA85CB
:100CB600FB85EA1BFB0BEA87FB87EFCF2A3328F07D
:100CC60003FF02C0295F01C0295D04FD1AC021335C
:100CD60020F4A885B985119709F409C0531710F0B7
:100CE60000FF01C013C020E207FF0BC020E3006134
:100CF60002FF07C00B7F4A930E949007503009F00D
:100D060051500E948107503009F051503150A8854A
:100D1600B985129708F0B5CF00FF08C0503031F002
:100D26005150E0E2EA930E949007F8CF10E0DDCE42
:100D3600AC85BD850E94BD080E940409649608958D
:100D4600FF92F82E26971A930A93DE0114960E94B4
:100D560071088D01E0E0EC83ED83EE83EF83DE0125
:100D660018960E9471080E94BD08FA93EA931A9396
:100D76000A93E2E6F5E0FA93EA93FE013896FA93CF
:100D8600EA93A9DE198108812896FF900895A99112
:100D9600B991EE27FF276D91662311F03196FBCFAF
:100DA6000895AA27BB27E991F9910590002011F033
:100DB6001196FBCFFD010895E0930005F093010520
:100DC6000895E0930205F09303050895FA93EA93D4
:100DD6000C943905E0EFF0E0F9CFFA93EA930C941E
:100DE600E803E0E0EA930C944202662777270E9424
:100DF600CF080895E1E0EA930C944202E2E0EA9318
:100E06000C944202FA93EA930C94AA07E8E0F0E005
:100E1600E4CFFA93EA930C94400580EA8A95F1F7B9
:100E2600EA81EA930E9434028F0108950A921A9287
:100E36009A93AA93BA93EA93FA93EFB7EA93E09157
:100E46001705F0E0089502B2ADE0B5E0A80DB91DB2
:100E5600EC91E295E07F089503B0A5E0B5E0AA0D18
:100E6600BB1DEC91E295E07F0895E0931505F093A4
:100E760016050895E0911805F09119050895F5DF16
:100E8600C0901805D0901905E0E0F0E00E94040932
:100E96000895E0911505F09116050895E0911A055B
:100EA600F0911B0508950F5F1F4FE0E0E0931E05CC
:100EB60008952F5F3F4FE0E0E0931F050895EEDFB2
:100EC600F595E7950895E6E4FFEF76DFE6E4FFEFB4
:100ED60078CFE0911C05F0911D0508950A921A92AB
:100EE600FA926A937A938A939A93AA93BA93EA9315
:100EF600FA93EFB7EA93E8ECF0E084CF2A93ED8516
:100F0600FE85FA93EA93E989FA8909950895E889AD
:100F1600F9893497E88BF98B0895ED85FE85FA9368
:100F2600EA93E989FA8909950895A889B9891496F1
:100F36000E94BD08EE83FF83FA93EA930895A88979
:100F4600B98914960E94BD08EA87FB870895E9913E
:100F5600F991309639F080EA9FE00197F1F7A8956C
:100F66003197C9F70895552342F4503811F4E0FF3C
:100F760004C03196691F791F6BF050E8572711F4AA
:100F86005F9355C05F3F31F0660F000C579567952C
:100F9600752F08955F9300200AF055C04EC050E8A3
:100FA600192E1522880F991F9527550F879550E8FA
:100FB600072E0522660F771F7527550F679508952B
:100FC600689401C0E8945F93F2DF703818F07F3FB1
:100FD60008F42DC056E1571BAAF4519558300EF46B
:100FE600593030F0EFEFFFEF6FEF7FE777F91AC078
:100FF60077275523B9F0EE0FFF1F661F771F5A9507
:10100600D1F710C07727583028F0EF2FF62F672F2B
:101016005850F9CF552331F076956795F795E795B2
:101026005A95D1F700200AF461D05F910895EE2712
:10103600FF27662777275F910895EFEFFFEF6FE7AA
:101046007FEF5F910895EFEFFFEF6FE77FE75F9127
:1010560008955F93A4DF703821F411200AF4EDCFD0
:10106600F2CF903809F4E3CF01240894970B1BF4D0
:10107600D4F30020F3CF792F1F932F933F934F93F1
:1010860011241127222733274427552790E2AE172C
:10109600BF078607410730F0AE1BBF0B860B410B1F
:1010A600089401C08894551F221F331F111CAA1FC4
:1010B600BB1F881F441F9A9551F7F901612D4F9167
:1010C6003F912F911F91662332F0550FEE1FFF1FA0
:1010D600661F7A9543F247DF5F9108950024AF0DAE
:1010E600B01D0895F195E195F0400895F09560954D
:1010F6007095E195FF4F6F4F7F4F0895FA9FF02D42
:10110600EB9FF00DEA9FE02DF10D089525D0F6DF57
:101116000EF4E8DF08950024112490E1AA0FBB1F06
:10112600001C111C0E1A1F0A18F40E0E1F1E01C0F9
:10113600A1609A9599F7FD01D0010895E894B7FF4B
:1011460004C0A095B09511966894F7FDCBDFE3DF58
:10115600FD010EF4C7DF0895E894F7FF02C0C2DF71
:101166006894B7FF06C0A095B095119600F8039451
:1011760000FA0895ED91FC91119708950590F49168
:10118600E02D0895E881F9816A817B810895E883DD
:10119600F9836A837B8308957A936A93FA93EA9331
:1011A6000895119602D0FE2F1197E199FECFFF9375
:1011B600FFB7F894AEBBBFBBE09AEDB3FFBFFF919C
:1011C600089507D01196EF93EF2F03D0EF91119763
:1011D6000895E19B02C0A895FCCF9FB7F894AEBBDB
:1011E600BFBBE09A8DB3E81719F0EDBBE29AE19A1E
:1011F6009FBF08955A934A933A932A931A930A9350
:1012060008955D814C813B812A8119810881089569
:00000001FF
